{
  "_format": "hh-sol-artifact-1",
  "contractName": "BuyMeACoffee",
  "sourceName": "contracts/BuyMeACoffee.sol",
  "abi": [
    {
      "inputs": [],
      "stateMutability": "nonpayable",
      "type": "constructor"
    },
    {
      "anonymous": false,
      "inputs": [
        {
          "indexed": true,
          "internalType": "address",
          "name": "from",
          "type": "address"
        },
        {
          "indexed": false,
          "internalType": "uint256",
          "name": "timestamp",
          "type": "uint256"
        },
        {
          "indexed": false,
          "internalType": "string",
          "name": "name",
          "type": "string"
        },
        {
          "indexed": false,
          "internalType": "string",
          "name": "message",
          "type": "string"
        }
      ],
      "name": "newMemo",
      "type": "event"
    },
    {
      "inputs": [
        {
          "internalType": "string",
          "name": "_name",
          "type": "string"
        },
        {
          "internalType": "string",
          "name": "_message",
          "type": "string"
        }
      ],
      "name": "buyMeACoffee",
      "outputs": [],
      "stateMutability": "payable",
      "type": "function"
    },
    {
      "inputs": [],
      "name": "getMemos",
      "outputs": [
        {
          "components": [
            {
              "internalType": "address",
              "name": "from",
              "type": "address"
            },
            {
              "internalType": "uint256",
              "name": "timestamp",
              "type": "uint256"
            },
            {
              "internalType": "string",
              "name": "name",
              "type": "string"
            },
            {
              "internalType": "string",
              "name": "message",
              "type": "string"
            }
          ],
          "internalType": "struct BuyMeACoffee.Memo[]",
          "name": "",
          "type": "tuple[]"
        }
      ],
      "stateMutability": "view",
      "type": "function"
    },
    {
      "inputs": [],
      "name": "withdrawTips",
      "outputs": [],
      "stateMutability": "nonpayable",
      "type": "function"
    }
  ],
  "bytecode": "0x608060405234801561001057600080fd5b5033600160006101000a81548173ffffffffffffffffffffffffffffffffffffffff021916908373ffffffffffffffffffffffffffffffffffffffff160217905550610d8f806100616000396000f3fe6080604052600436106100345760003560e01c80633aaa74b214610039578063865c517214610050578063db136f6d1461007b575b600080fd5b34801561004557600080fd5b5061004e610097565b005b34801561005c57600080fd5b50610065610189565b60405161007291906106fc565b60405180910390f35b61009560048036038101906100909190610867565b61036c565b005b600160009054906101000a900473ffffffffffffffffffffffffffffffffffffffff1673ffffffffffffffffffffffffffffffffffffffff163373ffffffffffffffffffffffffffffffffffffffff1614610127576040517f08c379a000000000000000000000000000000000000000000000000000000000815260040161011e9061093c565b60405180910390fd5b600160009054906101000a900473ffffffffffffffffffffffffffffffffffffffff1673ffffffffffffffffffffffffffffffffffffffff166108fc479081150290604051600060405180830381858888f1935050505061018757600080fd5b565b60606000805480602002602001604051908101604052809291908181526020016000905b8282101561036357838290600052602060002090600402016040518060800160405290816000820160009054906101000a900473ffffffffffffffffffffffffffffffffffffffff1673ffffffffffffffffffffffffffffffffffffffff1673ffffffffffffffffffffffffffffffffffffffff168152602001600182015481526020016002820180546102409061098b565b80601f016020809104026020016040519081016040528092919081815260200182805461026c9061098b565b80156102b95780601f1061028e576101008083540402835291602001916102b9565b820191906000526020600020905b81548152906001019060200180831161029c57829003601f168201915b505050505081526020016003820180546102d29061098b565b80601f01602080910402602001604051908101604052809291908181526020018280546102fe9061098b565b801561034b5780601f106103205761010080835404028352916020019161034b565b820191906000526020600020905b81548152906001019060200180831161032e57829003601f168201915b505050505081525050815260200190600101906101ad565b50505050905090565b600034116103af576040517f08c379a00000000000000000000000000000000000000000000000000000000081526004016103a690610a2e565b60405180910390fd5b600060405180608001604052803373ffffffffffffffffffffffffffffffffffffffff16815260200142815260200184815260200183815250908060018154018082558091505060019003906000526020600020906004020160009091909190915060008201518160000160006101000a81548173ffffffffffffffffffffffffffffffffffffffff021916908373ffffffffffffffffffffffffffffffffffffffff1602179055506020820151816001015560408201518160020190816104779190610bfa565b50606082015181600301908161048d9190610bfa565b5050503373ffffffffffffffffffffffffffffffffffffffff167f9d3a1a6a7a31ef2d2a038d45b3d5fadbcac748ac4ccccac9da7c8cb6b6424fc34284846040516104da93929190610d14565b60405180910390a25050565b600081519050919050565b600082825260208201905092915050565b6000819050602082019050919050565b600073ffffffffffffffffffffffffffffffffffffffff82169050919050565b600061053d82610512565b9050919050565b61054d81610532565b82525050565b6000819050919050565b61056681610553565b82525050565b600081519050919050565b600082825260208201905092915050565b60005b838110156105a657808201518184015260208101905061058b565b60008484015250505050565b6000601f19601f8301169050919050565b60006105ce8261056c565b6105d88185610577565b93506105e8818560208601610588565b6105f1816105b2565b840191505092915050565b60006080830160008301516106146000860182610544565b506020830151610627602086018261055d565b506040830151848203604086015261063f82826105c3565b9150506060830151848203606086015261065982826105c3565b9150508091505092915050565b600061067283836105fc565b905092915050565b6000602082019050919050565b6000610692826104e6565b61069c81856104f1565b9350836020820285016106ae85610502565b8060005b858110156106ea57848403895281516106cb8582610666565b94506106d68361067a565b925060208a019950506001810190506106b2565b50829750879550505050505092915050565b600060208201905081810360008301526107168184610687565b905092915050565b6000604051905090565b600080fd5b600080fd5b600080fd5b600080fd5b7f4e487b7100000000000000000000000000000000000000000000000000000000600052604160045260246000fd5b610774826105b2565b810181811067ffffffffffffffff821117156107935761079261073c565b5b80604052505050565b60006107a661071e565b90506107b2828261076b565b919050565b600067ffffffffffffffff8211156107d2576107d161073c565b5b6107db826105b2565b9050602081019050919050565b82818337600083830152505050565b600061080a610805846107b7565b61079c565b90508281526020810184848401111561082657610825610737565b5b6108318482856107e8565b509392505050565b600082601f83011261084e5761084d610732565b5b813561085e8482602086016107f7565b91505092915050565b6000806040838503121561087e5761087d610728565b5b600083013567ffffffffffffffff81111561089c5761089b61072d565b5b6108a885828601610839565b925050602083013567ffffffffffffffff8111156108c9576108c861072d565b5b6108d585828601610839565b9150509250929050565b600082825260208201905092915050565b7f596f7520617265206e6f74206f776e657220736f206e6f207469700000000000600082015250565b6000610926601b836108df565b9150610931826108f0565b602082019050919050565b6000602082019050818103600083015261095581610919565b9050919050565b7f4e487b7100000000000000000000000000000000000000000000000000000000600052602260045260246000fd5b600060028204905060018216806109a357607f821691505b6020821081036109b6576109b561095c565b5b50919050565b7f596f752063616e27742062757920616e797468696e672077697468203020657460008201527f6800000000000000000000000000000000000000000000000000000000000000602082015250565b6000610a186021836108df565b9150610a23826109bc565b604082019050919050565b60006020820190508181036000830152610a4781610a0b565b9050919050565b60008190508160005260206000209050919050565b60006020601f8301049050919050565b600082821b905092915050565b600060088302610ab07fffffffffffffffffffffffffffffffffffffffffffffffffffffffffffffffff82610a73565b610aba8683610a73565b95508019841693508086168417925050509392505050565b6000819050919050565b6000610af7610af2610aed84610553565b610ad2565b610553565b9050919050565b6000819050919050565b610b1183610adc565b610b25610b1d82610afe565b848454610a80565b825550505050565b600090565b610b3a610b2d565b610b45818484610b08565b505050565b5b81811015610b6957610b5e600082610b32565b600181019050610b4b565b5050565b601f821115610bae57610b7f81610a4e565b610b8884610a63565b81016020851015610b97578190505b610bab610ba385610a63565b830182610b4a565b50505b505050565b600082821c905092915050565b6000610bd160001984600802610bb3565b1980831691505092915050565b6000610bea8383610bc0565b9150826002028217905092915050565b610c038261056c565b67ffffffffffffffff811115610c1c57610c1b61073c565b5b610c26825461098b565b610c31828285610b6d565b600060209050601f831160018114610c645760008415610c52578287015190505b610c5c8582610bde565b865550610cc4565b601f198416610c7286610a4e565b60005b82811015610c9a57848901518255600182019150602085019450602081019050610c75565b86831015610cb75784890151610cb3601f891682610bc0565b8355505b6001600288020188555050505b505050505050565b610cd581610553565b82525050565b6000610ce68261056c565b610cf081856108df565b9350610d00818560208601610588565b610d09816105b2565b840191505092915050565b6000606082019050610d296000830186610ccc565b8181036020830152610d3b8185610cdb565b90508181036040830152610d4f8184610cdb565b905094935050505056fea264697066735822122078c1f9070f2299bdd1f63b8d8606e340cb4ed9d5b2ee7c6563d10f9b10dab86a64736f6c63430008130033",
  "linkReferences": {},
  "deployedLinkReferences": {}
}